:020000040000FA
:040000008A11FD2F35
:100D0E00831603138701080083120313A801A90198
:100D1E00962E0130A8070318A90A0030A907270844
:100D2E00A1002608A0006430A2000030A3008A11A2
:100D3E00AE268A118312031321082902031DA92E40
:100D4E0020082802031CAC2EAD2E902E0800831214
:100D5E000313A401A501201CB52EB62EBC2E22080D
:100D6E00A4070318A50A2308A50701300310A20D36
:100D7E00A30DFF3E031DBD2E01300310A10CA00CD0
:100D8E00FF3E031DC42E20082104031DCF2ED02E9E
:100D9E00B22E2508A1002408A00008008A1187267B
:100DAE008A1183120313AD01AE010530A600003087
:100DBE00A7008A118B268A11831203132D088A111C
:100DCE00FD268A11013083120313AD070318AE0AF4
:100DDE000030AE0700302E02643003192D02031CC2
:100DEE00F92EFA2EDC2EFA2E8A1100288312031306
:100DFE00AC000A30A0000030A1002C08A800A90108
:100E0E002808A2002908A3008A1139278A11831203
:100E1E0003132008FF007F08AA000A30A00000304C
:100E2E00A1002C08A800A9012808A2002908A300E7
:100E3E008A1194278A11831203132008FF007F085A
:100E4E00AB000F302A05A8002B08A90003300310B1
:100E5E00A90DFF3E031D2E2F0310290DF039280476
:100E6E008700080083120313A501A31F3F2F402FF5
:100E7E00472FA209A309A20A0319A30AA501A50ACD
:100E8E00A11F4A2F4B2F502FA009A109A00A031909
:100E9E00A10A200821040319552F562F852FA401CE
:100EAE00A40A642F01300310A00DA10DFF3E031DF7
:100EBE005A2F0130FF007F08A407A11F672F682F4C
:100ECE00592F21082302031D6E2F20082202031C16
:100EDE00712F722F782F2008A2022108031CA30362
:100EEE00A30201300310A10CA00CFF3E031D792FAD
:100EFE000130A402031D842F852F682F25080319A6
:100F0E00892F8A2F8F2FA209A309A20A0319A30AD8
:100F1E002308A1002208A000080083120313A501D4
:100F2E00A11F9A2F9B2FA22FA009A109A00A031976
:100F3E00A10AA501A50AA31FA52FA62FAF2FA209AF
:100F4E00A309A20A0319A30A0130FF007F08A50610
:100F5E00A601A701200821040319B62FB72FEE2FE3
:100F6E00A401A40AC52F01300310A00DA10DFF3E50
:100F7E00031DBB2F0130FF007F08A407A11FC82F40
:100F8E00C92FBA2F01300310A60DA70DFF3E031D6A
:100F9E00CA2F21082302031DD62F20082202031C6C
:100FAE00D92FDA2FE12F2008A2022108031CA30358
:100FBE00A302261401300310A10CA00CFF3E031D4A
:100FCE00E22F0130A402031DED2FEE2FC92F2508AD
:100FDE000319F22FF32FF82FA609A709A60A031952
:100FEE00A70A2708A1002608A000080083018A117D
:020FFE00D52EEE
:02400E00FB3F76
:00000001FF
